:100000000C9434000C9451000C94ED010C945100AC
:100010000C9451000C9451000C9451000C9451001C
:100020000C9451000C9451000C9451000C9451000C
:100030000C9451000C9451000C9451000C945100FC
:100040000C9451000C9451000C9451000C945100EC
:100050000C9451000C9451000C9451000C945100DC
:100060000C9451000C94510011241FBECFEFD8E026
:10007000DEBFCDBF11E0A0E0B1E0E0E6F9E102C0F3
:1000800005900D92A631B107D9F721E0A6E1B1E0C4
:1000900001C01D92AF31B207E1F70E9404060C9433
:1000A000AE0C0C940000ECE7F0E090819F7390831D
:1000B00090818295880F880F807C892B808308959A
:1000C000EAE7F0E090819F77908390818795882779
:1000D0008795892B80830895EAE7F0E02081287FC7
:1000E00020839081982B9083089520917C00207F1D
:1000F00020937C0090917C00982B90937C008091C1
:100100007A00806480937A0080917A0086FDFCCF2B
:1001100080917800909179000895019739F08FE1EE
:1001200090E090938B0080938A0008958FE590E093
:10013000F8CF019739F081E790E0909389008093A0
:100140008800089581E490E0F8CF86B18170089529
:1001500082E090E00E94B508FC0190931701809323
:10016000160185E290E09183808325E022839483C9
:10017000838324E025839783868383E080870895A3
:1001800080911801882359F041E069E171E0809184
:100190001601909117010E942B03109218010895E7
:1001A00090911901917F880F982B9093190181E00C
:1001B000809318010895909119019F7E8295807F08
:1001C000982B9093190181E08093180108959091E4
:1001D00019019E7F982B9093190181E0809318015B
:1001E0000895CF93DF93D82FC92F0E94DB008D2F66
:1001F0009C2F0E9499008D2F9C2F0E948D00DF91D3
:10020000CF910C94C0000C94DD02CF93DF930F923A
:10021000CDB7DEB76AE00E940B0740E1849F9001F2
:100220001124922B998321E0AE014F5F5F4F62E072
:1002300088E60E94DB050F90DF91CF910895CF9360
:10024000DF930F92CDB7DEB76AE00E940B0740E163
:10025000849F90011124922B998321E0AE014F5F7E
:100260005F4F61E088E60E94DB050F90DF91CF9140
:100270000895CF93DF930F92CDB7DEB721E0AE01A3
:100280004F5F5F4F60E088E60E94A1058981982F4B
:1002900092959F708F702AE0929F800D11240F908D
:1002A000DF91CF910895CF93DF930F92CDB7DEB753
:1002B00021E0AE014F5F5F4F61E088E60E94A1053B
:1002C0008981982F92959F708F702AE0929F800D60
:1002D00011240F90DF91CF910895CF93DF930F9268
:1002E000CDB7DEB721E0AE014F5F5F4F62E088E639
:1002F0000E94A1058981982F92959B708F702AE0AA
:10030000929F800D11240F90DF91CF910895EF926D
:10031000FF920F931F93CF93DF930F92CDB7DEB76A
:1003200021E08E010F5F1F4FA8016FE088E60E9459
:10033000A1058981780182FF18C021E0A7016FE043
:1003400088E60E94A105898182FDF7CF21E0A701FF
:1003500061E188E60E94A10589810F90DF91CF912C
:100360001F910F91FF90EF90089521E0A8016EE09A
:1003700088E60E94A10589818062898321E0A80125
:100380006EE088E60E94DB05898121E0A70185FFF8
:10039000DFCF6EE088E60E94A105F6CFE9E6F0E047
:1003A00020812C7F20839081982B90830895E9E60B
:1003B000F0E09081937F90839081880F880F892B44
:1003C00080830895E8989DB3982B9DBB0895E99884
:1003D0009DB3880F892B8DBB08951F920F920FB686
:1003E0000F9211242F933F934F935F936F937F93BB
:1003F0008F939F93AF93BF93EF93FF934E9B14C044
:1004000081E00E949304FF91EF91BF91AF919F9182
:100410008F917F916F915F914F913F912F910F90AD
:100420000FBE0F901F9018954F9BEDCF80E0E9CF46
:100430000E946B0560E080E40E9477058EEF0E94C9
:1004400097050C947305CF93DF9300D000D00F92E3
:10045000CDB7DEB70E946B0560E080E40E947705AF
:1004600083EE0E9497050E946B0561E080E40E9484
:1004700077050E9483058D830E948D0589830E94E4
:1004800073052D813981922F832F8C7F9C0150E041
:1004900040E029833A834B835C83CA01B9010E94FF
:1004A000BA0727EB33EB4FE25BE369837A838B83F5
:1004B0009C8369817A818B819C810E94480826E611
:1004C00036E64BE352E469837A838B839C836981AC
:1004D0007A818B819C810E94170769837A838B8341
:1004E0009C8369817A818B819C810E948407862FFD
:1004F0000F900F900F900F900F90DF91CF91089574
:10050000CF93DF9300D000D00F92CDB7DEB70E941B
:100510006B0560E080E40E94770585EE0E949705F8
:100520000E946B0561E080E40E9477050E948305CC
:100530008D830E948D0589830E9473052D813981E9
:10054000922F832F8C7F9C0150E040E029833A83D7
:100550004B835C83CA01B9010E94BA072DE434EFD2
:1005600049EF5AE369837A838B839C8369817A811B
:100570008B819C810E94480820E030E040EC50E4F0
:1005800069837A838B839C8369817A818B819C8147
:100590000E94170769837A838B839C8369817A81A0
:1005A0008B819C810E948B07862F0F900F900F905C
:1005B0000F900F90DF91CF910895FF920F931F93AB
:1005C000CF93DF9300D000D0CDB7DEB789839A8375
:1005D0008B010E942302E981FA8180830E948002BC
:1005E000F82EE981FA81208189E190E0821B91094E
:1005F00027FD93959C01990F440B550B29833A8352
:100600004B835C83CA01B9010E94BC072AE939E91E
:1006100049E15EEB69837A838B839C8369817A816C
:100620008B819C810E94480869837A838B839C8399
:1006300069817A818B819C810E9484076F0DF8010A
:1006400060830F900F900F900F90DF91CF911F91CB
:100650000F91FF900895CF92DF92EF92FF920F9348
:100660001F93CF93DF93FC016B0121E030E0411138
:1006700041C0A681B7814C91208581E090E07C014A
:1006800002C0EE0CFF1C2A95E2F797012095242367
:100690002C93AFE8B1E01197F1F700C00000A681FC
:1006A000B7812C913085AC0101C0440F3A95EAF72F
:1006B000242B2C93AFE8B1E01197F1F700C00000B4
:1006C000A681B7812C91308501C0880F3A95EAF751
:1006D000809582238C938FE891E00197F1F700C019
:1006E0000000DF91CF911F910F91FF90EF90DF906D
:1006F000CF9008954150E601C40FD11DC88167E035
:1007000070E0D0E0038114818581790102C0EE0C94
:10071000FF1C8A95E2F7C7017E01062E02C0F59400
:10072000E7940A94E2F7D8019C91E0FE44C0892B3B
:10073000D8018C9300811181D8015C91828179016B
:1007400002C0EE0CFF1C8A95E2F7C7018095852355
:100750008C938FE891E00197F1F700C000000081D1
:100760001181D8018C919281790101C0EE0C9A958A
:10077000EAF78E298C938FE891E00197F1F700C09A
:10078000000000811181D8015C918281790102C051
:10079000EE0CFF1C8A95E2F7C701809585238C93A8
:1007A0008FE891E00197F1F700C0000061507109F6
:1007B00008F0A8CF5CCF80958923BACF82E090E083
:1007C0000C94B508E1E8F0E02081287F2083908137
:1007D000982B90830895E0E8F0E090819C7F9083CF
:1007E0002081982F9370922B9083E1E8F0E0908124
:1007F000977E90839081880F8871892B80830895DC
:10080000E0E8F0E090819F73908390818295880F5B
:10081000880F807C892B80830895E0E8F0E0908148
:100820009F7C908390818295807F892B808308951F
:10083000EFE6F0E010829081982B908308959091DC
:100840001A019F70662351F084FD906185FD9062CE
:1008500086FD906487FF0AC0906808C080FD9061A3
:1008600081FD906282FD906483FDF6CF90931A0122
:1008700060911A016B7F60931A0120E050E040E024
:1008800087E20E94DB0585E38A95F1F7000060911D
:100890001A01646060931A0120E050E040E087E2B2
:1008A0000E94DB0595E39A95F1F7000060911A012B
:1008B0006B7F60931A0120E050E040E087E20E94E5
:1008C000DB058FE891E00197F1F700C00000089583
:1008D000CF93C82F80911A018E7F80931A0161E017
:1008E0008C2F0E941F0460E08C2FCF910C941F046A
:1008F000CF93C82F80911A01816080931A0185E0FF
:100900008A95F1F7000061E08C2F0E941F0460E0DF
:100910008C2F0E941F0487EC90E00197F1F700C034
:100920000000CF91089560911A01882349F0686012
:1009300060931A0120E050E040E087E20C94DB0570
:10094000677FF6CF81E00E9468048FE39FE1019703
:10095000F1F700C00000089582E00E9468048FE370
:100960009FE10197F1F700C000000895CF93C82FD1
:100970002FEF80E792E0215080409040E1F700C0E7
:10098000000061E080E30E941F048FE19EE4019774
:10099000F1F700C0000061E080E30E941F0487E5DA
:1009A00092E00197F1F700C0000061E080E30E944F
:1009B0001F0487EC90E00197F1F700C0000061E0B0
:1009C00080E20E941F04C23080F4C0E28C2F0E949B
:1009D00068048C2F0E9468048CE00E94680486E002
:1009E0000E946804CF910C94A204C8E2EFCF6295F4
:1009F000660F660F607C860F80680E9468048FE82F
:100A000091E00197F1F700C0000008950F931F9344
:100A1000CF93DF93EC018C010F5E1F4F89918823E8
:100A200019F0C017D10729F4DF91CF911F910F91D1
:100A300008950E947804F2CF0C947804811103C0C9
:100A40008CE00C9468048EE0FCCF811103C08CE034
:100A50000C9468048DE0FCCF811103C088E00C94F5
:100A600068048CE0FCCF88E10C9468048CE10C9461
:100A700068040F931F93CF93DF938C0128E0629F4C
:100A8000C001112480640E946804E801085F1F4FC0
:100A900089910E947804C017D107D1F7DF91CF91D7
:100AA0001F910F910895E9EBF0E020812C7F2083C6
:100AB0009081982B908308958093B800089588239F
:100AC00031F08091BC0084608093BC0008958091D7
:100AD000BC008470F9CF84EA8093BC008091BC0094
:100AE00087FFFCCF089584E98093BC000895880FA8
:100AF000862B8093BB0084E88093BC008091BC006F
:100B000087FFFCCF089584EC8093BC008091BC00EB
:100B100087FFFCCF8091BB00089584E88093BC00E0
:100B20008091BC0087FFFCCF8091BB00089580932B
:100B3000BB0084E88093BC008091BC0087FFFCCFA1
:100B40000895CF92DF92FF920F931F93CF93DF937D
:100B5000D82FF62E8A01C22F0E946B0560E08D2FE0
:100B60000E9477058F2D0E9497050E946B0561E01A
:100B70008D2F0E947705F12CC150DD0B8F2D90E059
:100B80006801C80ED91E8C179D077CF00E948D0548
:100B9000F601808384E98093BC00DF91CF911F919F
:100BA0000F91FF90DF90CF9008950E948305F6018A
:100BB0008083F394E3CFFF920F931F93CF93DF9340
:100BC000D82FC62FF42E052F122F0E946B0560E040
:100BD0008D2F0E9477058C2F0E949705CF2DD02F47
:100BE000CE01810F911D8C01C017D10749F484E912
:100BF0008093BC00DF91CF911F910F91FF900895DA
:100C000089910E949705F0CFCDB7DEB7A0970FB6B8
:100C1000F894DEBF0FBECDBF259A249A239A229A5C
:100C2000219A3A9A2D98429881E00E94530587E1D3
:100C30000E945C0582E090E00E94000482E090E067
:100C40000E940D048EE090E00E94EB0384E090E0AF
:100C50000E94E20381EE94E09093870080938600E7
:100C600082E090E00E94D70181E090E00E94E701DD
:100C700081E090E00E94530084E090E00E946C00CC
:100C800081E090E00E946000789482E00E94B604C7
:100C900081E00E9493040E94180290E080E00E948C
:100CA000990090E080E00E948D000E94A80090E0F2
:100CB00080E00E94E70090E080E00E94DB0090E08E
:100CC00080E00E94D0000E94C00081E090E00E947D
:100CD000F1002FEF81EE94E0215080409040E1F749
:100CE00000C00000429A2FEF83E294EF2150804031
:100CF0009040E1F700C0000042982FEF83ED90E3B1
:100D0000215080409040E1F700C0000090E080E07A
:100D10000E94F10083E090E00E94D00090E080E02B
:100D20000E94990081E090E00E948D000E94C00026
:100D300081E090E00E94E7000E94C0002FEF87EA68
:100D400091E6215080409040E1F700C0000090E023
:100D500080E00E94E7000E94C00086E0882E81E0CB
:100D6000982ECE0101966C0192E1A92E91E0B92E48
:100D70008E010F5E1F4F0E943901E82E0E94530121
:100D8000F82E0E946D01282F8E2D6AE00E940B071D
:100D90001F929F931F928F938F2D0E940B071F927C
:100DA0009F931F928F93822F0E940B071F929F93F6
:100DB0001F928F939F928F92DF92CF920E94DD09B4
:100DC00086E090E00E9475009F938F93BF92AF9250
:100DD0001F930F930E94DD090E94A20460E080E04F
:100DE0000E94F704C8010E94060561E080E00E94AD
:100DF000F704C6010E9406059FEF29E688E191509D
:100E000020408040E1F700C000000FB6F894DEBF3C
:100E10000FBECDBFB0CF991B79E004C0991F9617C4
:100E200008F0961B881F7A95C9F780950895505849
:100E3000BB27AA270E942F070C940E080E940008C7
:100E400038F00E94070820F039F49F3F19F426F487
:100E50000C94FD070EF4E095E7FB0C94F707E92FDF
:100E60000E941F0858F3BA17620773078407950793
:100E700020F079F4A6F50C9441080EF4E0950B2EC1
:100E8000BA2FA02D0B01B90190010C01CA01A001DC
:100E90001124FF27591B99F0593F50F4503E68F137
:100EA0001A16F040A22F232F342F4427585FF3CF78
:100EB000469537952795A795F0405395C9F77EF449
:100EC0001F16BA0B620B730B840BBAF09150A1F092
:100ED000FF0FBB1F661F771F881FC2F70EC0BA0F18
:100EE000621F731F841F48F4879577956795B795A0
:100EF000F7959E3F08F0B0CF9395880F08F099279B
:100F0000EE0F9795879508950E948B076894B1110D
:100F10000C94420808950E94270888F09F5798F083
:100F2000B92F9927B751B0F0E1F0660F771F881FEE
:100F3000991F1AF0BA95C9F714C0B13091F00E9408
:100F40004108B1E008950C944108672F782F882755
:100F5000B85F39F0B93FCCF3869577956795B3952F
:100F6000D9F73EF490958095709561957F4F8F4F9E
:100F70009F4F0895E89409C097FB3EF490958095A3
:100F8000709561957F4F8F4F9F4F9923A9F0F92F4F
:100F900096E9BB279395F695879577956795B795CD
:100FA000F111F8CFFAF4BB0F11F460FF1BC06F5FB3
:100FB0007F4F8F4F9F4F16C0882311F096E911C0C5
:100FC000772321F09EE8872F762F05C0662371F0E6
:100FD00096E8862F70E060E02AF09A95660F771FFA
:100FE000881FDAF7880F9695879597F9089597F9EE
:100FF0009F6780E870E060E008959FEF80EC0895BF
:1010000000240A94161617061806090608950024E7
:101010000A9412161306140605060895092E039461
:10102000000C11F4882352F0BB0F40F4BF2B11F4D5
:1010300060FF04C06F5F7F4F8F4F9F4F089557FD34
:101040009058440F551F59F05F3F71F04795880F36
:1010500097FB991F61F09F3F79F0879508951216CD
:1010600013061406551FF2CF4695F1DF08C0161679
:1010700017061806991FF1CF86957105610508942A
:101080000895E894BB2766277727CB0197F9089541
:101090000E945B080C940E080E94000838F00E9421
:1010A000070820F0952311F00C94F7070C94FD0726
:1010B00011240C9442080E941F0870F3959FC1F3FD
:1010C000950F50E0551F629FF001729FBB27F00DF6
:1010D000B11D639FAA27F00DB11DAA1F649F66274B
:1010E000B00DA11D661F829F2227B00DA11D621F9A
:1010F000739FB00DA11D621F839FA00D611D221F54
:10110000749F3327A00D611D231F849F600D211D37
:10111000822F762F6A2F11249F5750409AF0F1F0BA
:1011200088234AF0EE0FFF1FBB1F661F771F881F23
:1011300091505040A9F79E3F510580F00C94F7075D
:101140000C9442085F3FE4F3983ED4F3869577957C
:101150006795B795F795E7959F5FC1F7FE2B880FC9
:10116000911D9695879597F908950F931F93CF93A7
:10117000DF939C01029710F422E030E0E0911B0124
:10118000F0911C0190E080E0B0E0A0E0309791F495
:10119000009709F445C0821B930B84309105B8F584
:1011A0008A819B816115710569F1FB0193838283BB
:1011B000FE0111C040815181028113814217530702
:1011C000F0F04217530799F4109761F012960C93C0
:1011D000129713961C933296CF01DF91CF911F91F6
:1011E0000F91089500931B0110931C01F4CF0097F9
:1011F00019F04817590718F4CA01BD01EF01DF01C2
:10120000F801C4CF90931C0180931B01D1CFFE0144
:10121000E80FF91F21933193029799838883DCCFDC
:1012200080911D0190911E01892B41F48091020152
:101230009091030190931E0180931D018091000104
:1012400090910101009741F48DB79EB74091040140
:1012500050910501841B950B40911D0150911E0179
:101260004817590708F0B8CF841B950B82179307CE
:1012700008F4B2CFB9016E5F7F4F8617970708F465
:10128000ABCF640F751F70931E0160931D01FA01AF
:1012900021933193A1CFCF93DF939C010097E9F085
:1012A000FC01329713821282C0911B01D0911C0164
:1012B000DE0190E080E02097A1F480819181280FE9
:1012C000391F80911D0190911E018217930709F02B
:1012D00067C0F0931E01E0931D01DF91CF91089547
:1012E000DA01AE17BF0708F041C012964D915C912C
:1012F0001397CD014115510599F7DC011396FC9325
:10130000EE9312974D915D91A40FB51FEA17FB075D
:1013100081F4208131812E5F3F4F240F351FDC0186
:1013200011963C932E932281338113963C932E93F6
:101330001297B0E0A0E08A819B810097B1F5FE0191
:1013400081919191E80FF91F80911D0190911E01EB
:101350008E179F0711F6109759F510921C011092E5
:101360001B01D0931E01C0931D01B7CFB383A2838D
:1013700040815181240F351FA217B30771F44E5FCE
:101380005F4F2D913C911197420F531F5183408322
:1013900012962D913C9133832283009709F0ADCFB3
:1013A000F0931C01E0931B0198CFDE01EC01C3CF49
:1013B00013961C921E921297D4CFAEE0B0E0E3EEEB
:1013C000F9E00C94850C0D891E8986E08C831A83C4
:1013D00009838FEF9FE79E838D83AE01475E5F4F4A
:1013E0006F89788DCE0101960E94000A2F81388581
:1013F000020F131FF80110822E96E4E00C94A10C4A
:10140000AFE0B0E0E6E0FAE00C94770C7C013B0141
:101410008A01DC0117961C921E92169713968C91E6
:1014200081FFBEC19AE0292EFE0131964F01D701FE
:1014300013969C91F30193FD859193FF81913F0158
:10144000882309F444C1853239F493FD859193FFD3
:1014500081913F01853229F4B70190E00E94E90BA8
:10146000E6CFB12C412C512CBFE1B51538F08B32B1
:1014700009F188F4803201F1833221F157FC3AC03E
:1014800020ED280F2A3040F556FE1FC0B29C200DDB
:101490001124B22E06C08D3291F0803379F7689412
:1014A00050F8F30193FD859193FF81913F018111E4
:1014B000DBCF20C0689451F8689452F8F2CF68945A
:1014C00053F8EFCF689454F8ECCF429C200D1124D0
:1014D000422E689455F8E5CF8E3229F456FCF7C0B9
:1014E000689456F8DECF8C3619F4689457F8D9CF43
:1014F0008836B9F2982F9F7D95549330C0F083368B
:10150000A1F18337C1F1833509F05BC0D801CD90DB
:10151000DD908D016B2D70E056FC02C06FEF7FEF08
:10152000C6010E94D30B5C01689457F80AC00C5F97
:101530001F4FEFE3E983AA24A394B12C6401E8943C
:1015400057F853FC04C04A141B0409F018F5342C56
:10155000A114B10431F5332009F469CFB70180E259
:1015600090E00E94E90B3A94F6CFD8018C918983E0
:101570000E5F1F4FE0CFF801C190D1908F016B2D0E
:1015800070E056FC02C06FEF7FEFC6010E94DE0BD9
:101590005C01D5CFB70180E290E00E94E90B4A944C
:1015A000D2CFF60157FC859157FE81916F01B701AB
:1015B00090E00E94E90B31103A94B1E0AB1AB10807
:1015C000C7CF843619F0893609F071C0F80157FE8B
:1015D00067C061917191819191918F01E52DEF76B5
:1015E000DE2E97FF09C090958095709561957F4F8D
:1015F0008F4F9F4F6894D7F82AE030E0A4010E94F3
:10160000190CC82EC818AC2C5D2CD6FE0CC0E89462
:1016100050F8CB1440F4D4FE05C0D2FC03C05D2DBD
:101620005E7E552EAB2C54FE93C0FE01EC0DF11DD9
:101630008081803309F085C0652D697E562E752D19
:101640007870372E53FC93C050FE8DC0BC2CA41470
:1016500010F4B40CBA1854FE90C0B70180E390E0C7
:101660000E94E90B52FE07C088E751FC88E590E034
:10167000B7010E94E90BCB1408F48BC0CA94D12C9B
:101680008FEFC81AD80AC80CD91CD6018E916D01EB
:10169000B70190E00E94E90B8C149D04B1F75BCF79
:1016A00061917191072E000C880B990B96CFD52C68
:1016B000E894D4F82AE0853729F1F52DF97FDF2E5B
:1016C0008037A1F058F48835A1F08F36D1F0F701BA
:1016D000868197812F96E2E10C94930C8837B9F7B5
:1016E000D4FE02C06894D2F820E10CC06894D4F80B
:1016F000F7CF54FE03C02F2F2660D22E20E132E018
:1017000002C028E030E0F801D7FE15C041915191A8
:10171000619171914C875D876E877F878F01A401EE
:101720006C857D858E859F850E94190CC82EC818F2
:10173000E894D7F868CF81919191AC0170E060E0B6
:10174000E9CF52FC02C0A3947ACFA394A39477CF9D
:10175000852D867809F473CFF6CFB70180E290E04B
:101760000E94E90BA394A414C0F3312C74CF342C41
:101770003A18A41408F46FCFF8CF852D867809F4B1
:101780007ACF8BE251FE80E257FC8DE2B70190E008
:1017900070CFB70180E390E00E94E90BBA946BCF61
:1017A0008FEF9FEF97CFFC010590615070400110C3
:1017B000D8F7809590958E0F9F1F0895FC0161507A
:1017C000704001900110D8F7809590958E0F9F1F63
:1017D00008950F931F93CF93DF93182F092FEB01D9
:1017E0008B8181FD09C01FEF0FEF812F902FDF91BB
:1017F000CF911F910F91089582FF14C02E813F81D8
:101800008C819D81281739073CF4E881F981CF014B
:1018100001969983888310838E819F8101969F838F
:101820008E83E3CFE885F985812F0995892BA1F374
:10183000DACFFA01AA27283051F1203181F1E8945A
:101840006F936E7F6E5F7F4F8F4F9F4FAF4FB1E0B3
:101850003ED0B4E03CD0670F781F891F9A1FA11DAE
:10186000680F791F8A1F911DA11D6A0F711D811DAF
:10187000911DA11D20D009F468943F912AE0269F74
:1018800011243019305D3193DEF6CF010895462FD3
:101890004770405D4193B3E00FD0C9F7F6CF462FB4
:1018A0004F70405D4A3318F0495D31FD405241931D
:1018B00002D0A9F7EACFB4E0A695979587957795DA
:1018C0006795BA95C9F700976105710508959B0161
:1018D000AC010A2E06945795479537952795BA95EA
:1018E000C9F7620F731F841F951FA01D08952F92C3
:1018F0003F924F925F926F927F928F929F92AF92A0
:10190000BF92CF92DF92EF92FF920F931F93CF93EC
:10191000DF93CDB7DEB7CA1BDB0B0FB6F894DEBF83
:101920000FBECDBF09942A88398848885F846E84A9
:101930007D848C849B84AA84B984C884DF80EE80F3
:10194000FD800C811B81AA81B981CE0FD11D0FB6FC
:10195000F894DEBF0FBECDBFED010895F894FFCF20
:1019600000001F012000256425643A256425643A9F
:061970002564256400005F
:00000001FF
